:020000040000FA
:100000000C947C000C94A4000C94A4000C94A40008
:100010000C94A4000C94A4000C94A4000C94A400D0
:100020000C94A4000C94A4000C94A4000C94A400C0
:100030000C94A4000C94A4000C94A4000C94A400B0
:100040000C94E3020C94A4000C9453030C942D0321
:100050000C94A4000C94A4000C94A4000C94A40090
:100060000C94A4000C94A4004F70656E696E672018
:10007000646F6F72210053657475702066696E69D4
:1000800073686564210052656164696E6720504938
:100090004E2066726F6D205350492E000000000004
:1000A00023002600290000000000240027002A0069
:1000B00000000000250028002B00040404040404B0
:1000C0000404020202020202030303030303010207
:1000D00004081020408001020408102001020408D6
:1000E00010200000000800020100000304070000C7
:1000F000000000000000CF0511241FBECFEFD8E0A4
:10010000DEBFCDBF11E0A0E0B1E0E8E0FCE002C05E
:1001100005900D92A632B107D9F721E0A6E2B1E031
:1001200001C01D92A83EB207E1F710E0CCE7D0E095
:1001300004C02197FE010E94FC05CB37D107C9F707
:100140000E9485030C9402060C940000833081F019
:1001500028F4813099F08230A9F008958730A9F011
:100160008830C9F08430B1F4809180008F7D03C065
:10017000809180008F7780938000089584B58F7779
:1001800084BD089584B58F7DFBCF8091B0008F77BB
:100190008093B00008958091B0008F7DF9CF1F93B8
:1001A000CF93DF93282F30E0F901EE51FF4F849178
:1001B000F901E253FF4FD491F901E654FF4FC49186
:1001C000CC23A9F0162F81110E94A600EC2FF0E09D
:1001D000EE0FFF1FE055FF4FA591B4918FB7F89434
:1001E000EC91111108C0D095DE23DC938FBFDF9115
:1001F000CF911F910895DE2BF8CFCF93DF9390E03E
:10020000FC01E253FF4F249186549F4FFC018491DF
:100210008823D1F090E0880F991FFC01EA55FF4F29
:10022000A591B491FC01E055FF4FC591D491623086
:1002300071F49FB7F8943C91822F809583238C931F
:10024000E8812E2B28839FBFDF91CF9108958FB730
:10025000F894EC912E2B2C938FBFF6CF3FB7F894E8
:100260008091470190914801A0914901B0914A01C4
:1002700026B5A89B05C02F3F19F00196A11DB11D01
:100280003FBFBA2FA92F982F8827BC01CD01620F3D
:10029000711D811D911D42E0660F771F881F991FF8
:1002A0004A95D1F708958F929F92AF92BF92CF92C5
:1002B000DF92EF92FF924B015C010E942E016B01D5
:1002C0007C010E942E016C197D098E099F09683EF0
:1002D000734081059105A8F321E0821A9108A108D5
:1002E000B10888EEC80E83E0D81EE11CF11C811411
:1002F0009104A104B10429F7FF90EF90DF90CF9013
:10030000BF90AF909F908F900895AF92BF92CF9281
:10031000DF92EF92FF920F931F93CF93DF936C01C5
:100320007B018B01040F151FEB015E01AE18BF08A6
:10033000C017D10759F06991D601ED91FC91019058
:10034000F081E02DC6010995892B79F7C501DF9170
:10035000CF911F910F91FF90EF90DF90CF90BF90C2
:10036000AF900895FC01538D448D252F30E0842FEC
:1003700090E0821B930B541710F0CF9608950197CD
:100380000895FC01918D828D981761F0A28DAE0FBA
:10039000BF2FB11D5D968C91928D9F5F9F73928F41
:1003A00090E008958FEF9FEF0895FC01918D828D6D
:1003B000981731F0828DE80FF11D858D90E008953A
:1003C0008FEF9FEF0895FC01918D228D892F90E092
:1003D000805C9F4F821B91098F73992708958BE44E
:1003E00091E00E94E30121E0892B09F420E0822FB3
:1003F000089580E090E0892B29F00E94EF0181119F
:100400000C9400000895FC01A48DA80FB92FB11D14
:10041000A35ABF4F2C91848D90E001968F7399273A
:10042000848FA689B7892C93A089B1898C91837018
:1004300080648C93938D848D981306C00288F38911
:10044000E02D80818F7D80830895EF92FF920F933E
:100450001F93CF93DF93EC0181E0888F9B8D8C8D70
:1004600098131AC0E889F989808185FF15C09FB764
:10047000F894EE89FF896083E889F9898081837027
:10048000806480839FBF81E090E0DF91CF911F91D6
:100490000F91FF90EF900895F62E0B8D10E00F5FF7
:1004A0001F4F0F731127E02E8C8D8E110CC00FB6CD
:1004B00007FCFACFE889F989808185FFF5CFCE0165
:1004C0000E940302F1CFEB8DEC0FFD2FF11DE35ADB
:1004D000FF4FF0829FB7F8940B8FEA89FB898081E8
:1004E0008062CFCF0F931F93CF93DF938C01D0E027
:1004F000C0E0F801EC0FFD1F6491662341F08BE42E
:1005000091E00E942502892B11F02196F2CFCE01B5
:10051000DF91CF911F910F910895CF93DF93EC015D
:10052000888D8823B9F0AA89BB89E889F9898C91DB
:1005300085FD03C0808186FD0DC00FB607FCF7CF97
:100540008C9185FFF2CF808185FFEDCFCE010E9497
:100550000302E9CFDF91CF91089588E690E00E94F1
:10056000720261E087E10E94CF0068E873E180E0F9
:1005700090E00E94530160E087E10C94CF00CF939C
:10058000DF93D82FC5E060E08D2F0E94CF0060E0A0
:1005900072E080E090E00E94530161E08D2F0E94A4
:1005A000CF0060E072E080E090E00E945301C15013
:1005B00051F7DF91CF9108958EBD00000DB407FE75
:1005C000FDCF8EB508951F920F920FB60F92112492
:1005D0002F933F938F939F93AF93BF93809143014A
:1005E00090914401A0914501B091460130914201A2
:1005F00023E0230F2D3758F50196A11DB11D20933F
:1006000042018093430190934401A0934501B0932C
:1006100046018091470190914801A0914901B09114
:100620004A010196A11DB11D809347019093480195
:10063000A0934901B0934A01BF91AF919F918F91CF
:100640003F912F910F900FBE0F901F90189526E8A5
:10065000230F0296A11DB11DD2CF1F920F920FB68C
:100660000F9211242F933F934F935F936F937F9338
:100670008F939F93AF93BF93EF93FF938BE491E09E
:100680000E940302FF91EF91BF91AF919F918F91D3
:100690007F916F915F914F913F912F910F900FBE7E
:1006A0000F901F9018951F920F920FB60F92112462
:1006B0002F938F939F93EF93FF93E0915B01F091C2
:1006C0005C018081E0916101F091620182FD1BC0BB
:1006D0009081809164018F5F8F73209165018217F3
:1006E00041F0E0916401F0E0E55BFE4F958F80936F
:1006F0006401FF91EF919F918F912F910F900FBE09
:100700000F901F9018958081F4CF789484B5826003
:1007100084BD84B5816084BD85B5826085BD85B5A5
:10072000816085BD80916E00816080936E00109223
:10073000810080918100826080938100809181009E
:10074000816080938100809180008160809380002F
:100750008091B10084608093B1008091B00081608D
:100760008093B00080917A00846080937A008091B9
:100770007A00826080937A0080917A008160809311
:100780007A0080917A00806880937A001092C1008C
:10079000E0915B01F0915C0182E08083E091570180
:1007A000F09158011082E0915901F0915A018FECBB
:1007B000808310926301E0915F01F091600186E017
:1007C0008083E0915D01F0915E0180818061808392
:1007D000E0915D01F0915E01808188608083E0910D
:1007E0005D01F0915E01808180688083E0915D0110
:1007F000F0915E0180818F7D808362E083E00E94C2
:10080000FD0062E084E00E94FD0062E085E00E945D
:10081000FD0062E086E00E94FD0062E080E00E9450
:10082000FD0062E081E00E94FD0062E082E00E9443
:10083000FD0086E890E00E94720261E08AE00E947A
:10084000FD0061E08DE00E94FD0061E08BE00E9410
:10085000FD0062E08CE00E94FD0081E58CBD1DBCC6
:1008600060E08AE00E94CF0083E00E94DC0280E02A
:100870000E94DC0280E00E94DC0280E00E94DC0238
:1008800080E00E94DC02C82FC0902E01D0902F0182
:10089000E0903001F090310180E00E94DC02182FDE
:1008A00080E00E94DC02D82F80E00E94DC028D2BC9
:1008B000C82AC12BCC2AC0922E01D0922F01E092DF
:1008C0003001F092310161E08AE00E94CF0086E7BA
:1008D00090E00E94720250E0E52E50E0F52E99243F
:1008E000939480913A01811115C02FB7F8948091AB
:1008F000430190914401A0914501B09146012FBF61
:100900008093360190933701A0933801B093390159
:1009100090923A01C7E1D1E0B12CA99061E08A2D13
:100920000E94FD0060E08A2D0E94CF0003E111E0EB
:10093000D12CF80121918F0130E0F901EE51FF4FE8
:100940008491F901E253FF4FC490F901E654FF4F3F
:1009500084908820A1F081110E94A600E82DF0E08B
:10096000EE0FFF1FE456FF4FA591B491EC91CE22FC
:1009700031F0D394F4E0DF12DCCF1FEF02C01B2D67
:100980001D0D62E08A2D0E94FD001F3F29F424E026
:10099000B20E3CE0B312C1CF809100012FB7811796
:1009A00001F1F8948091430190914401A091450197
:1009B000B09146012FBF8093260190932701A09309
:1009C0002801B093290110930001E114F10409F406
:1009D00088CF0E94EF01882309F483CF0E94000092
:1009E00080CFF8948091430190914401A0914501FA
:1009F000B09146012FBF409126015091270160918F
:100A0000280170912901841B950BA60BB70BC39786
:100A1000A105B105D0F2309100013F3FB1F2E32FC3
:100A2000F0E0E65EFE4F20812A3009F07AC0809126
:100A30002A0190912B01A0912C01B0912D0134E05D
:100A4000880F991FAA1FBB1F3A95D1F780932A01DF
:100A500090932B01A0932C01B0932D013FB7F894F4
:100A60008091430190914401A0914501B0914601CC
:100A70003FBF40913601509137016091380170912C
:100A80003901841B950BA60BB70B81369A4EA10535
:100A9000B10540F0109232011092330110923401EE
:100AA000109235018091320190913301A09134016F
:100AB000B09135012B3009F062C040912E01509168
:100AC0002F016091300170913101481759076A0771
:100AD0007B0709F050C080E10E94BF020E94AD0276
:100AE00010923201109233011092340110923501AC
:100AF00080912A0190912B01A0912C01B0912D01A0
:100B000080399749A749B74009F05FCF0E94AD02ED
:100B100010922A0110922B0110922C0110922D019B
:100B200054CF2B3049F410922A0110922B011092CD
:100B30002C0110922D0192CF80912A0190912B01CE
:100B4000A0912C01B0912D01AC01BD014F70552732
:100B500066277727452B462B472B49F4832B809319
:100B60002A0190932B01A0932C01B0932D012F3FCC
:100B700009F074CF2ACF88E10E94BF02B1CF24E0F0
:100B8000880F991FAA1FBB1F2A95D1F780933201A6
:100B900090933301A0933401B0933501A9CFEBE4D6
:100BA000F1E01382128288EE93E0A0E0B0E084834B
:100BB0009583A683B78385E091E09183808385EC5C
:100BC00090E09587848784EC90E09787868780EC17
:100BD00090E0918B808B81EC90E0938B828B82EC08
:100BE00090E0958B848B86EC90E0978B868B118EB2
:100BF000128E138E148E0895EE0FFF1F0590F49140
:100C0000E02D0994F894FFCFFF0000000025028535
:100C100001B2018D02E301C101D501030405060003
:0E0C200001020104070A020508000306090B81
:107E0000112484B714BE81FFF0D085E080938100F7
:107E100082E08093C00088E18093C10086E0809377
:107E2000C20080E18093C4008EE0C9D0259A86E02C
:107E300020E33CEF91E0309385002093840096BBD3
:107E4000B09BFECF1D9AA8958150A9F7CC24DD24C4
:107E500088248394B5E0AB2EA1E19A2EF3E0BF2EE7
:107E6000A2D0813461F49FD0082FAFD0023811F036
:107E7000013811F484E001C083E08DD089C08234E0
:107E800011F484E103C0853419F485E0A6D080C0E4
:107E9000853579F488D0E82EFF2485D0082F10E0AE
:107EA000102F00270E291F29000F111F8ED06801E7
:107EB0006FC0863521F484E090D080E0DECF843638
:107EC00009F040C070D06FD0082F6DD080E0C81688
:107ED00080E7D80618F4F601B7BEE895C0E0D1E017
:107EE00062D089930C17E1F7F0E0CF16F0E7DF06D8
:107EF00018F0F601B7BEE89568D007B600FCFDCFD4
:107F0000A601A0E0B1E02C9130E011968C91119780
:107F100090E0982F8827822B932B1296FA010C0160
:107F200087BEE89511244E5F5F4FF1E0A038BF0790
:107F300051F7F601A7BEE89507B600FCFDCF97BE46
:107F4000E89526C08437B1F42ED02DD0F82E2BD052
:107F50003CD0F601EF2C8F010F5F1F4F84911BD097
:107F6000EA94F801C1F70894C11CD11CFA94CF0C13
:107F7000D11C0EC0853739F428D08EE10CD085E9AC
:107F80000AD08FE07ACF813511F488E018D01DD067
:107F900080E101D065CF982F8091C00085FFFCCF94
:107FA0009093C60008958091C00087FFFCCF809118
:107FB000C00084FD01C0A8958091C6000895E0E648
:107FC000F0E098E1908380830895EDDF803219F02E
:107FD00088E0F5DFFFCF84E1DECF1F93182FE3DFCA
:107FE0001150E9F7F2DF1F91089580E0E8DFEE27F6
:047FF000FF270994CA
:027FFE00040479
:00000001FF
